{
  "contractName": "Answers",
  "abi": [
    {
      "constant": true,
      "inputs": [
        {
          "name": "",
          "type": "address"
        }
      ],
      "name": "organizations",
      "outputs": [
        {
          "name": "",
          "type": "bytes32"
        }
      ],
      "payable": false,
      "stateMutability": "view",
      "type": "function"
    },
    {
      "constant": true,
      "inputs": [],
      "name": "owner",
      "outputs": [
        {
          "name": "",
          "type": "address"
        }
      ],
      "payable": false,
      "stateMutability": "view",
      "type": "function"
    },
    {
      "constant": true,
      "inputs": [
        {
          "name": "",
          "type": "bytes32"
        }
      ],
      "name": "organizationAddress",
      "outputs": [
        {
          "name": "",
          "type": "address"
        }
      ],
      "payable": false,
      "stateMutability": "view",
      "type": "function"
    },
    {
      "inputs": [],
      "payable": false,
      "stateMutability": "nonpayable",
      "type": "constructor"
    },
    {
      "anonymous": false,
      "inputs": [
        {
          "indexed": true,
          "name": "organization",
          "type": "bytes32"
        },
        {
          "indexed": true,
          "name": "memberAddressKey",
          "type": "address"
        }
      ],
      "name": "_OrganizationAddressRegistered",
      "type": "event"
    },
    {
      "constant": false,
      "inputs": [
        {
          "name": "organizationName",
          "type": "bytes32"
        },
        {
          "name": "pubKey",
          "type": "address"
        }
      ],
      "name": "registerOrganizationAddress",
      "outputs": [],
      "payable": false,
      "stateMutability": "nonpayable",
      "type": "function"
    },
    {
      "constant": true,
      "inputs": [
        {
          "name": "pubKey",
          "type": "address"
        }
      ],
      "name": "isRegisteredOrganizationAddress",
      "outputs": [
        {
          "name": "",
          "type": "bool"
        }
      ],
      "payable": false,
      "stateMutability": "view",
      "type": "function"
    },
    {
      "constant": true,
      "inputs": [
        {
          "name": "organizationName",
          "type": "bytes32"
        }
      ],
      "name": "isRegisteredOrganization",
      "outputs": [
        {
          "name": "",
          "type": "bool"
        }
      ],
      "payable": false,
      "stateMutability": "view",
      "type": "function"
    }
  ],
  "bytecode": "0x608060405234801561001057600080fd5b5033600260006101000a81548173ffffffffffffffffffffffffffffffffffffffff021916908373ffffffffffffffffffffffffffffffffffffffff1602179055506105d3806100616000396000f300608060405260043610610078576000357c0100000000000000000000000000000000000000000000000000000000900463ffffffff1680635a1f74061461007d578063638bcbf9146100dc5780638da5cb5b14610137578063cb11fea01461018e578063eda109b3146101ff578063efadd20b14610250575b600080fd5b34801561008957600080fd5b506100be600480360381019080803573ffffffffffffffffffffffffffffffffffffffff169060200190929190505050610299565b60405180826000191660001916815260200191505060405180910390f35b3480156100e857600080fd5b5061011d600480360381019080803573ffffffffffffffffffffffffffffffffffffffff1690602001909291905050506102b1565b604051808215151515815260200191505060405180910390f35b34801561014357600080fd5b5061014c610301565b604051808273ffffffffffffffffffffffffffffffffffffffff1673ffffffffffffffffffffffffffffffffffffffff16815260200191505060405180910390f35b34801561019a57600080fd5b506101bd6004803603810190808035600019169060200190929190505050610327565b604051808273ffffffffffffffffffffffffffffffffffffffff1673ffffffffffffffffffffffffffffffffffffffff16815260200191505060405180910390f35b34801561020b57600080fd5b5061024e6004803603810190808035600019169060200190929190803573ffffffffffffffffffffffffffffffffffffffff16906020019092919050505061035a565b005b34801561025c57600080fd5b5061027f6004803603810190808035600019169060200190929190505050610517565b604051808215151515815260200191505060405180910390f35b60016020528060005260406000206000915090505481565b600080600160008473ffffffffffffffffffffffffffffffffffffffff1673ffffffffffffffffffffffffffffffffffffffff168152602001908152602001600020546000191614159050919050565b600260009054906101000a900473ffffffffffffffffffffffffffffffffffffffff1681565b60006020528060005260406000206000915054906101000a900473ffffffffffffffffffffffffffffffffffffffff1681565b600260009054906101000a900473ffffffffffffffffffffffffffffffffffffffff1673ffffffffffffffffffffffffffffffffffffffff163373ffffffffffffffffffffffffffffffffffffffff161415156103b657600080fd5b806000600102600160008373ffffffffffffffffffffffffffffffffffffffff1673ffffffffffffffffffffffffffffffffffffffff168152602001908152602001600020546000191614151561040c57600080fd5b816000808560405180826000191660001916815260200191505060405180910390206000191660001916815260200190815260200160002060006101000a81548173ffffffffffffffffffffffffffffffffffffffff021916908373ffffffffffffffffffffffffffffffffffffffff16021790555082600160008473ffffffffffffffffffffffffffffffffffffffff1673ffffffffffffffffffffffffffffffffffffffff16815260200190815260200160002081600019169055508173ffffffffffffffffffffffffffffffffffffffff1683600019167f3dcdcaf1a334cbf0a76eb6918c26f698fa2ccea5b42c67498964bc9d0fab14bd60405160405180910390a3505050565b60008073ffffffffffffffffffffffffffffffffffffffff166000808460405180826000191660001916815260200191505060405180910390206000191660001916815260200190815260200160002060009054906101000a900473ffffffffffffffffffffffffffffffffffffffff1673ffffffffffffffffffffffffffffffffffffffff16141590509190505600a165627a7a7230582024397837b272715412dcab8b901382909b09b893bd532eaf482b0f897d0926c40029",
  "source": "pragma solidity ^0.4.4;\n\n\ncontract Answers {\n\n  mapping (bytes32 => address) public organizationAddress;\n\n\n  mapping (address => bytes32) public organizations;\n\n  address public owner;\n\n  event _OrganizationAddressRegistered(bytes32 indexed organization, address indexed memberAddressKey);\n\n\n  modifier onlyOwner() {\n    if (msg.sender != owner) {\n      revert();\n    }\n\n    _;\n  }\n\n  modifier isRegistered() {\n    if (organizations[msg.sender] == 0) {\n      revert();\n    }\n\n    _;\n  }\n\n  modifier organizationAddressDoesNotExist(address pubKey) {\n    if (organizations[pubKey] != 0) {\n      revert();\n    }\n\n    // continue with code execution\n    _;\n  }\n\n  constructor() public {\n    owner = msg.sender;\n  }\n\n  function registerOrganizationAddress(bytes32 organizationName, address pubKey) onlyOwner organizationAddressDoesNotExist(pubKey) external {\n    organizationAddress[keccak256(organizationName)] = pubKey;\n    organizations[pubKey] = organizationName;\n    emit _OrganizationAddressRegistered(organizationName, pubKey);\n  }\n\n\n\n\n  // HELPER MODIFIER FUNCTIONS FOR TESTS\n  \n  /**\n   * @notice Check if organizationAddress is registered.\n   * @param pubKey organizationAddress public key\n   * @return bool\n   */\n  function isRegisteredOrganizationAddress(address pubKey) external constant returns (bool) {\n    return (organizations[pubKey] != \"\");\n  }\n\n  /**\n   * @notice Check if organizationAddress is registered\n   * @param organizationName name\n   * @return bool\n   */\n  function isRegisteredOrganization(bytes32 organizationName) external constant returns (bool) {\n    return (organizationAddress[keccak256(organizationName)] != address(0));\n  }\n\n\n}\n",
  "sourcePath": "/Users/nicholasporter/Projects/dapper-create-org/contracts/Answers.sol",
  "compiler": {
    "name": "solc",
    "version": "0.4.24+commit.e67f0147.Emscripten.clang"
  },
  "schemaVersion": "2.0.0",
  "updatedAt": "2018-06-01T22:34:15.162Z"
}